:040000006AEF00F0B3
:100008004D82D9CF04F0DACF05F0F3CF06F0F4CF64
:1000180007F0F2A412EF00F014EF00F060EF00F028
:10002800F294000ED76E060ED66E000E806E41500A
:10003800D8A421EF00F023EF00F027EF00F04CC028
:1000480083FF47EF00F0370E4124D96EDA6A000EBD
:10005800DA22DF50016E026A420E0124D96E000EC8
:100068000220DA6EDF50036E020E4118D8B43FEF5B
:1000780000F042EF00F0010E43EF00F0000E800D9B
:10008800F3500324836E41C001F0010E026E012A71
:1000980050EF00F0D8900236012E4EEF00F00250DB
:1000A800806E412A030E41645CEF00F05EEF00F0C1
:1000B80060EF00F0000E416E07C0F4FF06C0F3FFCA
:1000C80005C0DAFF04C0D9FF4D921100D2EF02F04B
:1000D800000E0F01386FF00E926E000E806E000E4B
:1000E8003B6F000E956E000E836E020E3C6F7F0E06
:1000F800966EC30ED56EA10EC06E000EC16EC250B4
:10010800830B1809C26EC280C282F28AF28CF28E08
:10011800C2B291EF00F093EF00F0E1EF00F0C4CF2E
:1001280027F0030E27162750296E286AC350282463
:100138003F6E000E2920406EC2823FC008F040C0CA
:1001480009F00A6A0B6A500E0C6EC30E0D6E000E93
:100158000E6E000E0F6E9DEC02F008C014F009C080
:1001680015F00AC016F00BC017F0FF0E186E030E3C
:10017800196E000E1A6E000E1B6E81EC01F014C091
:1001880033F015C034F016C035F017C036F03650CD
:1001980035100BE1100E335C270E3458D8A0D7EF7A
:1001A80000F0D9EF00F0E1EF00F00F0E336E270EEC
:1001B800346E000E356E000E366E33C00EF034C04D
:1001C8000FF035C010F036C011F0E80E126E030EB5
:1001D800136E000E146E000E156E07EC02F00E5032
:1001E8003A6E3AC008F0096A030E0B6EE80E0A6E02
:1001F800EDEC02F008C027F009C028F0000E28BE78
:10020800FF0E296E2A6E2750335C0E6E2850345824
:100218000F6E29503558106E2A503658116E640EDC
:10022800126E000E136E000E146E000E156E07ECA3
:1002380002F00E50396E3950640DF3CF27F0F4CF29
:1002480028F0000E28BEFF0E296E2A6E3AC008F06C
:10025800096A030E0B6EE80E0A6EEDEC02F008C098
:100268002BF009C02CF0000E2CBEFF0E2D6E2E6E4A
:100278002B1E2C1E2D1E2E1E2B2A000E2C222D224C
:100288002E2227502B5C2F6E28502C58306E295068
:100298002D58316E2A502E58326E33502F240E6E40
:1002A800345030200F6E35503120106E36503220C9
:1002B800116E0A0E126E000E136E000E146E000EF2
:1002C800156E07EC02F00E50386E33C008F034C0DB
:1002D80009F035C00AF036C00BF00A0E0C6E000E9D
:1002E8000D6E000E0E6E000E0F6E59EC02F00850E7
:1002F800376E8CEF00F06AEF00F0000E1D6E1BBE2B
:100308008AEF01F088EF01F094EF01F01B1E1A1E2E
:10031800191E186C000E19221A221B22010E1D6EBE
:1003280017BE9BEF01F099EF01F0A5EF01F0171E42
:10033800161E151E146C000E152216221722010E09
:100348001D1A000E1E6E000E1F6E000E206E000E8F
:10035800216E185019101A101B10D8B4B6EF01F0FE
:10036800B8EF01F0EEEF01F0010E1C6EC2EF01F0E4
:10037800D890183619361A361B361C2A1BAEC7EF0A
:1003880001F0C9EF01F0BCEF01F0D8901E361F361E
:10039800203621361850145C195015581A50165822
:1003A8001B501758D8A0DBEF01F0DDEF01F0E6EFA6
:1003B80001F01850145E1950155A1A50165A1B504D
:1003C800175A1E80D8901B321A32193218321C2E36
:1003D800C9EF01F01D50D8B4F4EF01F0F6EF01F0C9
:1003E800FEEF01F0211E201E1F1E1E6C000E1F2294
:1003F800202221221EC014F01FC015F020C016F0C4
:1004080021C017F01200000E166E000E176E000EB7
:10041800186E000E196E1250131014101510D8B45F
:1004280018EF02F01AEF02F050EF02F0010E1A6E08
:1004380024EF02F0D89012361336143615361A2ADD
:1004480015AE29EF02F02BEF02F01EEF02F0D89064
:10045800163617361836193612500E5C13500F58C8
:100468001450105815501158D8A03DEF02F03FEF26
:1004780002F048EF02F012500E5E13500F5A14505B
:10048800105A1550115A1680D8901532143213325A
:1004980012321A2E2BEF02F016C00EF017C00FF012
:1004A80018C010F019C011F012000C500D100E10E9
:1004B8000F10D8B462EF02F064EF02F094EF02F08C
:1004C800010E106E6EEF02F0D8900C360D360E3617
:1004D8000F36102A0FAE73EF02F075EF02F068EFD7
:1004E80002F00C50085C0D5009580E500A580F5075
:1004F8000B58D8A082EF02F084EF02F08CEF02F0E4
:100508000C50085E0D50095A0E500A5A0F500B5ADB
:10051800D8900F320E320D320C32102E75EF02F0D9
:1005280008C008F009C009F00AC00AF00BC00BF0B7
:100538001200000E106E000E116E000E126E000EEC
:10054800136E08A0AAEF02F0ACEF02F0B4EF02F0CD
:100558000C5010260D5011220E5012220F5013224B
:10056800D8900C360D360E360F36D8900B320A322C
:1005780009320832085009100A100B10D8A4C7EF26
:1005880002F0C9EF02F0A5EF02F010C008F011C0A8
:1005980009F012C00AF013C00BF01200000EF66E3C
:1005A800060EF76E000EF86E00EE42F010EE0BF03D
:1005B8000900F5CFEEFFE550E150FAE100EE33F027
:1005C8000F0EEE6AE806FDE14D904D9200016CEFCA
:1005D80000F008500A02F3CF0CF0F4CF0DF00850E9
:1005E8000B02F3500D2609500A02F3500D260CC0D9
:1005F80008F00DC009F012003F065B4F666D7D07DD
:030608007F6F39C8
:020000040020DA
:08000000FFFFFFFFFFFFFFFF00
:020000040030CA
:0E000000FF221F3CFFBF85FF0FC00FE00F4027
:00000001FF
